{
  "_format": "hh-sol-artifact-1",
  "contractName": "PinRIT",
  "sourceName": "contracts/PinRIT.sol",
  "abi": [
    {
      "inputs": [],
      "stateMutability": "nonpayable",
      "type": "constructor"
    },
    {
      "anonymous": false,
      "inputs": [
        {
          "indexed": true,
          "internalType": "address",
          "name": "owner",
          "type": "address"
        },
        {
          "indexed": true,
          "internalType": "address",
          "name": "approved",
          "type": "address"
        },
        {
          "indexed": true,
          "internalType": "uint256",
          "name": "tokenId",
          "type": "uint256"
        }
      ],
      "name": "Approval",
      "type": "event"
    },
    {
      "anonymous": false,
      "inputs": [
        {
          "indexed": true,
          "internalType": "address",
          "name": "owner",
          "type": "address"
        },
        {
          "indexed": true,
          "internalType": "address",
          "name": "operator",
          "type": "address"
        },
        {
          "indexed": false,
          "internalType": "bool",
          "name": "approved",
          "type": "bool"
        }
      ],
      "name": "ApprovalForAll",
      "type": "event"
    },
    {
      "anonymous": false,
      "inputs": [
        {
          "indexed": true,
          "internalType": "uint256",
          "name": "tokenID",
          "type": "uint256"
        },
        {
          "indexed": false,
          "internalType": "address",
          "name": "owner",
          "type": "address"
        },
        {
          "indexed": false,
          "internalType": "address",
          "name": "seller",
          "type": "address"
        },
        {
          "indexed": false,
          "internalType": "uint256",
          "name": "price",
          "type": "uint256"
        },
        {
          "indexed": false,
          "internalType": "bool",
          "name": "currentlyListed",
          "type": "bool"
        }
      ],
      "name": "MintedNFTSuccess",
      "type": "event"
    },
    {
      "anonymous": false,
      "inputs": [
        {
          "indexed": true,
          "internalType": "address",
          "name": "from",
          "type": "address"
        },
        {
          "indexed": true,
          "internalType": "address",
          "name": "to",
          "type": "address"
        },
        {
          "indexed": true,
          "internalType": "uint256",
          "name": "tokenId",
          "type": "uint256"
        }
      ],
      "name": "Transfer",
      "type": "event"
    },
    {
      "inputs": [
        {
          "internalType": "address",
          "name": "to",
          "type": "address"
        },
        {
          "internalType": "uint256",
          "name": "tokenId",
          "type": "uint256"
        }
      ],
      "name": "approve",
      "outputs": [],
      "stateMutability": "nonpayable",
      "type": "function"
    },
    {
      "inputs": [
        {
          "internalType": "address",
          "name": "owner",
          "type": "address"
        }
      ],
      "name": "balanceOf",
      "outputs": [
        {
          "internalType": "uint256",
          "name": "",
          "type": "uint256"
        }
      ],
      "stateMutability": "view",
      "type": "function"
    },
    {
      "inputs": [
        {
          "internalType": "uint256",
          "name": "tokenId",
          "type": "uint256"
        }
      ],
      "name": "buyNFT",
      "outputs": [],
      "stateMutability": "payable",
      "type": "function"
    },
    {
      "inputs": [],
      "name": "getAllNFTs",
      "outputs": [
        {
          "components": [
            {
              "internalType": "uint256",
              "name": "tokenID",
              "type": "uint256"
            },
            {
              "internalType": "address payable",
              "name": "owner",
              "type": "address"
            },
            {
              "internalType": "address payable",
              "name": "seller",
              "type": "address"
            },
            {
              "internalType": "uint256",
              "name": "price",
              "type": "uint256"
            },
            {
              "internalType": "bool",
              "name": "currentlyListed",
              "type": "bool"
            }
          ],
          "internalType": "struct PinRIT.MintedNFT[]",
          "name": "",
          "type": "tuple[]"
        }
      ],
      "stateMutability": "view",
      "type": "function"
    },
    {
      "inputs": [
        {
          "internalType": "uint256",
          "name": "tokenId",
          "type": "uint256"
        }
      ],
      "name": "getApproved",
      "outputs": [
        {
          "internalType": "address",
          "name": "",
          "type": "address"
        }
      ],
      "stateMutability": "view",
      "type": "function"
    },
    {
      "inputs": [],
      "name": "getListPrice",
      "outputs": [
        {
          "internalType": "uint256",
          "name": "",
          "type": "uint256"
        }
      ],
      "stateMutability": "view",
      "type": "function"
    },
    {
      "inputs": [],
      "name": "getMyNFTs",
      "outputs": [
        {
          "components": [
            {
              "internalType": "uint256",
              "name": "tokenID",
              "type": "uint256"
            },
            {
              "internalType": "address payable",
              "name": "owner",
              "type": "address"
            },
            {
              "internalType": "address payable",
              "name": "seller",
              "type": "address"
            },
            {
              "internalType": "uint256",
              "name": "price",
              "type": "uint256"
            },
            {
              "internalType": "bool",
              "name": "currentlyListed",
              "type": "bool"
            }
          ],
          "internalType": "struct PinRIT.MintedNFT[]",
          "name": "",
          "type": "tuple[]"
        }
      ],
      "stateMutability": "view",
      "type": "function"
    },
    {
      "inputs": [
        {
          "internalType": "address",
          "name": "owner",
          "type": "address"
        },
        {
          "internalType": "address",
          "name": "operator",
          "type": "address"
        }
      ],
      "name": "isApprovedForAll",
      "outputs": [
        {
          "internalType": "bool",
          "name": "",
          "type": "bool"
        }
      ],
      "stateMutability": "view",
      "type": "function"
    },
    {
      "inputs": [
        {
          "internalType": "string",
          "name": "tokenURI",
          "type": "string"
        },
        {
          "internalType": "uint256",
          "name": "price",
          "type": "uint256"
        }
      ],
      "name": "mint",
      "outputs": [
        {
          "internalType": "uint256",
          "name": "",
          "type": "uint256"
        }
      ],
      "stateMutability": "payable",
      "type": "function"
    },
    {
      "inputs": [],
      "name": "name",
      "outputs": [
        {
          "internalType": "string",
          "name": "",
          "type": "string"
        }
      ],
      "stateMutability": "view",
      "type": "function"
    },
    {
      "inputs": [
        {
          "internalType": "uint256",
          "name": "tokenId",
          "type": "uint256"
        }
      ],
      "name": "ownerOf",
      "outputs": [
        {
          "internalType": "address",
          "name": "",
          "type": "address"
        }
      ],
      "stateMutability": "view",
      "type": "function"
    },
    {
      "inputs": [
        {
          "internalType": "address",
          "name": "from",
          "type": "address"
        },
        {
          "internalType": "address",
          "name": "to",
          "type": "address"
        },
        {
          "internalType": "uint256",
          "name": "tokenId",
          "type": "uint256"
        }
      ],
      "name": "safeTransferFrom",
      "outputs": [],
      "stateMutability": "nonpayable",
      "type": "function"
    },
    {
      "inputs": [
        {
          "internalType": "address",
          "name": "from",
          "type": "address"
        },
        {
          "internalType": "address",
          "name": "to",
          "type": "address"
        },
        {
          "internalType": "uint256",
          "name": "tokenId",
          "type": "uint256"
        },
        {
          "internalType": "bytes",
          "name": "data",
          "type": "bytes"
        }
      ],
      "name": "safeTransferFrom",
      "outputs": [],
      "stateMutability": "nonpayable",
      "type": "function"
    },
    {
      "inputs": [
        {
          "internalType": "address",
          "name": "operator",
          "type": "address"
        },
        {
          "internalType": "bool",
          "name": "approved",
          "type": "bool"
        }
      ],
      "name": "setApprovalForAll",
      "outputs": [],
      "stateMutability": "nonpayable",
      "type": "function"
    },
    {
      "inputs": [
        {
          "internalType": "bytes4",
          "name": "interfaceId",
          "type": "bytes4"
        }
      ],
      "name": "supportsInterface",
      "outputs": [
        {
          "internalType": "bool",
          "name": "",
          "type": "bool"
        }
      ],
      "stateMutability": "view",
      "type": "function"
    },
    {
      "inputs": [],
      "name": "symbol",
      "outputs": [
        {
          "internalType": "string",
          "name": "",
          "type": "string"
        }
      ],
      "stateMutability": "view",
      "type": "function"
    },
    {
      "inputs": [
        {
          "internalType": "uint256",
          "name": "tokenId",
          "type": "uint256"
        }
      ],
      "name": "tokenURI",
      "outputs": [
        {
          "internalType": "string",
          "name": "",
          "type": "string"
        }
      ],
      "stateMutability": "view",
      "type": "function"
    },
    {
      "inputs": [
        {
          "internalType": "address",
          "name": "from",
          "type": "address"
        },
        {
          "internalType": "address",
          "name": "to",
          "type": "address"
        },
        {
          "internalType": "uint256",
          "name": "tokenId",
          "type": "uint256"
        }
      ],
      "name": "transferFrom",
      "outputs": [],
      "stateMutability": "nonpayable",
      "type": "function"
    }
  ],
  "bytecode": "0x608060405266038d7ea4c68000600a553480156200001c57600080fd5b506040805180820182526006815265141a5b94925560d21b60208083019182528351808501909452600384526213919560ea1b908401528151919291620000669160009162000097565b5080516200007c90600190602084019062000097565b5050600980546001600160a01b03191633179055506200017a565b828054620000a5906200013d565b90600052602060002090601f016020900481019282620000c9576000855562000114565b82601f10620000e457805160ff191683800117855562000114565b8280016001018555821562000114579182015b8281111562000114578251825591602001919060010190620000f7565b506200012292915062000126565b5090565b5b8082111562000122576000815560010162000127565b600181811c908216806200015257607f821691505b602082108114156200017457634e487b7160e01b600052602260045260246000fd5b50919050565b611ee2806200018a6000396000f3fe6080604052600436106101095760003560e01c80636352211e11610095578063a22cb46511610064578063a22cb465146102bf578063b88d4fde146102df578063c87b56dd146102ff578063e0391b091461031f578063e985e9c51461033457600080fd5b80636352211e1461025557806368f1945f1461027557806370a082311461028a57806395d89b41146102aa57600080fd5b8063095ea7b3116100dc578063095ea7b3146101be57806323b872dd146101e057806342842e0e1461020057806351ed828814610220578063629cb2e41461023357600080fd5b806301ffc9a71461010e578063056b01ce1461014357806306fdde0314610164578063081812fc14610186575b600080fd5b34801561011a57600080fd5b5061012e610129366004611b08565b61037d565b60405190151581526020015b60405180910390f35b610156610151366004611b40565b6103cf565b60405190815260200161013a565b34801561017057600080fd5b50610179610411565b60405161013a9190611cc2565b34801561019257600080fd5b506101a66101a1366004611b96565b6104a3565b6040516001600160a01b03909116815260200161013a565b3480156101ca57600080fd5b506101de6101d9366004611adf565b6104ca565b005b3480156101ec57600080fd5b506101de6101fb3660046119f1565b6105e5565b34801561020c57600080fd5b506101de61021b3660046119f1565b610616565b6101de61022e366004611b96565b610631565b34801561023f57600080fd5b50610248610702565b60405161013a9190611c46565b34801561026157600080fd5b506101a6610270366004611b96565b610967565b34801561028157600080fd5b50600a54610156565b34801561029657600080fd5b506101566102a53660046119a5565b6109c7565b3480156102b657600080fd5b50610179610a4d565b3480156102cb57600080fd5b506101de6102da366004611aa5565b610a5c565b3480156102eb57600080fd5b506101de6102fa366004611a2c565b610a6b565b34801561030b57600080fd5b5061017961031a366004611b96565b610aa3565b34801561032b57600080fd5b50610248610bb4565b34801561034057600080fd5b5061012e61034f3660046119bf565b6001600160a01b03918216600090815260056020908152604080832093909416825291909152205460ff1690565b60006001600160e01b031982166380ac58cd60e01b14806103ae57506001600160e01b03198216635b5e139f60e01b145b806103c957506301ffc9a760e01b6001600160e01b03198316145b92915050565b60006103df600880546001019055565b60006103ea60085490565b90506103f63382610d1b565b6104008185610d35565b61040a8184610dcf565b9392505050565b60606000805461042090611e14565b80601f016020809104026020016040519081016040528092919081815260200182805461044c90611e14565b80156104995780601f1061046e57610100808354040283529160200191610499565b820191906000526020600020905b81548152906001019060200180831161047c57829003601f168201915b5050505050905090565b60006104ae82610f62565b506000908152600460205260409020546001600160a01b031690565b60006104d582610967565b9050806001600160a01b0316836001600160a01b031614156105485760405162461bcd60e51b815260206004820152602160248201527f4552433732313a20617070726f76616c20746f2063757272656e74206f776e656044820152603960f91b60648201526084015b60405180910390fd5b336001600160a01b03821614806105645750610564813361034f565b6105d65760405162461bcd60e51b815260206004820152603d60248201527f4552433732313a20617070726f76652063616c6c6572206973206e6f7420746f60448201527f6b656e206f776e6572206f7220617070726f76656420666f7220616c6c000000606482015260840161053f565b6105e08383610fc4565b505050565b6105ef3382611032565b61060b5760405162461bcd60e51b815260040161053f90611cd5565b6105e08383836110b0565b6105e083838360405180602001604052806000815250610a6b565b6000818152600b602052604090206002810180546004909201805460ff191660011790556001600160a01b03198216331790556001600160a01b031661067b600780546001019055565b6106863033846110b0565b61069030836104ca565b600954600a546040516001600160a01b039092169181156108fc0291906000818181858888f193505050501580156106cc573d6000803e3d6000fd5b506040516001600160a01b038216903480156108fc02916000818181858888f193505050501580156105e0573d6000803e3d6000fd5b6060600061070f60085490565b905060008060005b838110156107a75733600b600061072f846001611db9565b81526020810191909152604001600020600101546001600160a01b03161480610782575033600b6000610763846001611db9565b81526020810191909152604001600020600201546001600160a01b0316145b1561079557610792600184611db9565b92505b8061079f81611e4f565b915050610717565b5060008267ffffffffffffffff8111156107d157634e487b7160e01b600052604160045260246000fd5b60405190808252806020026020018201604052801561082a57816020015b6040805160a0810182526000808252602080830182905292820181905260608201819052608082015282526000199092019101816107ef5790505b50905060005b8481101561095e5733600b6000610848846001611db9565b81526020810191909152604001600020600101546001600160a01b0316148061089b575033600b600061087c846001611db9565b81526020810191909152604001600020600201546001600160a01b0316145b1561094c5760006108ad826001611db9565b6000818152600b6020908152604091829020825160a0810184528154815260018201546001600160a01b039081169382019390935260028201549092169282019290925260038201546060820152600482015460ff16151560808201528551929350909185908790811061093157634e487b7160e01b600052603260045260246000fd5b6020908102919091010152610947600186611db9565b945050505b8061095681611e4f565b915050610830565b50949350505050565b6000818152600260205260408120546001600160a01b0316806103c95760405162461bcd60e51b8152602060048201526018602482015277115490cdcc8c4e881a5b9d985b1a59081d1bdad95b88125160421b604482015260640161053f565b60006001600160a01b038216610a315760405162461bcd60e51b815260206004820152602960248201527f4552433732313a2061646472657373207a65726f206973206e6f7420612076616044820152683634b21037bbb732b960b91b606482015260840161053f565b506001600160a01b031660009081526003602052604090205490565b60606001805461042090611e14565b610a67338383611221565b5050565b610a753383611032565b610a915760405162461bcd60e51b815260040161053f90611cd5565b610a9d848484846112f0565b50505050565b6060610aae82610f62565b60008281526006602052604081208054610ac790611e14565b80601f0160208091040260200160405190810160405280929190818152602001828054610af390611e14565b8015610b405780601f10610b1557610100808354040283529160200191610b40565b820191906000526020600020905b815481529060010190602001808311610b2357829003601f168201915b505050505090506000610b5e60408051602081019091526000815290565b9050805160001415610b71575092915050565b815115610ba3578082604051602001610b8b929190611bda565b60405160208183030381529060405292505050919050565b610bac84611323565b949350505050565b60606000610bc160085490565b905060008167ffffffffffffffff811115610bec57634e487b7160e01b600052604160045260246000fd5b604051908082528060200260200182016040528015610c4557816020015b6040805160a081018252600080825260208083018290529282018190526060820181905260808201528252600019909201910181610c0a5790505b5090506000805b83811015610d12576000610c61826001611db9565b6000818152600b6020908152604091829020825160a0810184528154815260018201546001600160a01b039081169382019390935260028201549092169282019290925260038201546060820152600482015460ff161515608082015286519293509091869086908110610ce557634e487b7160e01b600052603260045260246000fd5b6020908102919091010152610cfb600185611db9565b935050508080610d0a90611e4f565b915050610c4c565b50909392505050565b610a67828260405180602001604052806000815250611396565b6000828152600260205260409020546001600160a01b0316610db05760405162461bcd60e51b815260206004820152602e60248201527f45524337323155524953746f726167653a2055524920736574206f66206e6f6e60448201526d32bc34b9ba32b73a103a37b5b2b760911b606482015260840161053f565b600082815260066020908152604090912082516105e09284019061187a565b600a543414610e155760405162461bcd60e51b8152602060048201526012602482015271496e73756666696369656e742066756e647360701b604482015260640161053f565b60008111610e785760405162461bcd60e51b815260206004820152602a60248201527f546861742073686f756c642062652067726561746572207468616e207a65726f604482015269081b5e48199c9a595b9960b21b606482015260840161053f565b6040805160a081018252838152306020808301828152338486018181526060860188815260016080880181815260008c8152600b9097529890952096518755925193860180546001600160a01b039586166001600160a01b03199182161790915590516002870180549190951691161790925551600384015592516004909201805492151560ff1990931692909217909155610f159190846110b0565b604080513081523360208201529081018290526001606082015282907fb60d6af69262395d36bb74b07486da09c1637bef4d2e26be4702a871091e28399060800160405180910390a25050565b6000818152600260205260409020546001600160a01b0316610fc15760405162461bcd60e51b8152602060048201526018602482015277115490cdcc8c4e881a5b9d985b1a59081d1bdad95b88125160421b604482015260640161053f565b50565b600081815260046020526040902080546001600160a01b0319166001600160a01b0384169081179091558190610ff982610967565b6001600160a01b03167f8c5be1e5ebec7d5bd14f71427d1e84f3dd0314c0f7b2291e5b200ac8c7c3b92560405160405180910390a45050565b60008061103e83610967565b9050806001600160a01b0316846001600160a01b0316148061108557506001600160a01b0380821660009081526005602090815260408083209388168352929052205460ff165b80610bac5750836001600160a01b031661109e846104a3565b6001600160a01b031614949350505050565b826001600160a01b03166110c382610967565b6001600160a01b0316146110e95760405162461bcd60e51b815260040161053f90611d74565b6001600160a01b03821661114b5760405162461bcd60e51b8152602060048201526024808201527f4552433732313a207472616e7366657220746f20746865207a65726f206164646044820152637265737360e01b606482015260840161053f565b61115883838360016113c9565b826001600160a01b031661116b82610967565b6001600160a01b0316146111915760405162461bcd60e51b815260040161053f90611d74565b600081815260046020908152604080832080546001600160a01b03199081169091556001600160a01b0387811680865260038552838620805460001901905590871680865283862080546001019055868652600290945282852080549092168417909155905184937fddf252ad1be2c89b69c2b068fc378daa952ba7f163c4a11628f55a4df523b3ef91a4505050565b816001600160a01b0316836001600160a01b031614156112835760405162461bcd60e51b815260206004820152601960248201527f4552433732313a20617070726f766520746f2063616c6c657200000000000000604482015260640161053f565b6001600160a01b03838116600081815260056020908152604080832094871680845294825291829020805460ff191686151590811790915591519182527f17307eab39ab6107e8899845ad3d59bd9653f200f220920489ca2b5937696c31910160405180910390a3505050565b6112fb8484846110b0565b61130784848484611451565b610a9d5760405162461bcd60e51b815260040161053f90611d22565b606061132e82610f62565b600061134560408051602081019091526000815290565b90506000815111611365576040518060200160405280600081525061040a565b8061136f8461155e565b604051602001611380929190611bda565b6040516020818303038152906040529392505050565b6113a08383611609565b6113ad6000848484611451565b6105e05760405162461bcd60e51b815260040161053f90611d22565b6001811115610a9d576001600160a01b0384161561140f576001600160a01b03841660009081526003602052604081208054839290611409908490611dd1565b90915550505b6001600160a01b03831615610a9d576001600160a01b03831660009081526003602052604081208054839290611446908490611db9565b909155505050505050565b60006001600160a01b0384163b1561155357604051630a85bd0160e11b81526001600160a01b0385169063150b7a0290611495903390899088908890600401611c09565b602060405180830381600087803b1580156114af57600080fd5b505af19250505080156114df575060408051601f3d908101601f191682019092526114dc91810190611b24565b60015b611539573d80801561150d576040519150601f19603f3d011682016040523d82523d6000602084013e611512565b606091505b5080516115315760405162461bcd60e51b815260040161053f90611d22565b805181602001fd5b6001600160e01b031916630a85bd0160e11b149050610bac565b506001949350505050565b6060600061156b836117a2565b600101905060008167ffffffffffffffff81111561159957634e487b7160e01b600052604160045260246000fd5b6040519080825280601f01601f1916602001820160405280156115c3576020820181803683370190505b5090508181016020015b600019016f181899199a1a9b1b9c1cb0b131b232b360811b600a86061a8153600a85049450846115fc57611601565b6115cd565b509392505050565b6001600160a01b03821661165f5760405162461bcd60e51b815260206004820181905260248201527f4552433732313a206d696e7420746f20746865207a65726f2061646472657373604482015260640161053f565b6000818152600260205260409020546001600160a01b0316156116c45760405162461bcd60e51b815260206004820152601c60248201527f4552433732313a20746f6b656e20616c7265616479206d696e74656400000000604482015260640161053f565b6116d26000838360016113c9565b6000818152600260205260409020546001600160a01b0316156117375760405162461bcd60e51b815260206004820152601c60248201527f4552433732313a20746f6b656e20616c7265616479206d696e74656400000000604482015260640161053f565b6001600160a01b038216600081815260036020908152604080832080546001019055848352600290915280822080546001600160a01b0319168417905551839291907fddf252ad1be2c89b69c2b068fc378daa952ba7f163c4a11628f55a4df523b3ef908290a45050565b60008072184f03e93ff9f4daa797ed6e38ed64bf6a1f0160401b83106117e15772184f03e93ff9f4daa797ed6e38ed64bf6a1f0160401b830492506040015b6d04ee2d6d415b85acef8100000000831061180d576d04ee2d6d415b85acef8100000000830492506020015b662386f26fc10000831061182b57662386f26fc10000830492506010015b6305f5e1008310611843576305f5e100830492506008015b612710831061185757612710830492506004015b60648310611869576064830492506002015b600a83106103c95760010192915050565b82805461188690611e14565b90600052602060002090601f0160209004810192826118a857600085556118ee565b82601f106118c157805160ff19168380011785556118ee565b828001600101855582156118ee579182015b828111156118ee5782518255916020019190600101906118d3565b506118fa9291506118fe565b5090565b5b808211156118fa57600081556001016118ff565b600067ffffffffffffffff8084111561192e5761192e611e80565b604051601f8501601f19908116603f0116810190828211818310171561195657611956611e80565b8160405280935085815286868601111561196f57600080fd5b858560208301376000602087830101525050509392505050565b80356001600160a01b03811681146119a057600080fd5b919050565b6000602082840312156119b6578081fd5b61040a82611989565b600080604083850312156119d1578081fd5b6119da83611989565b91506119e860208401611989565b90509250929050565b600080600060608486031215611a05578081fd5b611a0e84611989565b9250611a1c60208501611989565b9150604084013590509250925092565b60008060008060808587031215611a41578081fd5b611a4a85611989565b9350611a5860208601611989565b925060408501359150606085013567ffffffffffffffff811115611a7a578182fd5b8501601f81018713611a8a578182fd5b611a9987823560208401611913565b91505092959194509250565b60008060408385031215611ab7578182fd5b611ac083611989565b915060208301358015158114611ad4578182fd5b809150509250929050565b60008060408385031215611af1578182fd5b611afa83611989565b946020939093013593505050565b600060208284031215611b19578081fd5b813561040a81611e96565b600060208284031215611b35578081fd5b815161040a81611e96565b60008060408385031215611b52578182fd5b823567ffffffffffffffff811115611b68578283fd5b8301601f81018513611b78578283fd5b611b8785823560208401611913565b95602094909401359450505050565b600060208284031215611ba7578081fd5b5035919050565b60008151808452611bc6816020860160208601611de8565b601f01601f19169290920160200192915050565b60008351611bec818460208801611de8565b835190830190611c00818360208801611de8565b01949350505050565b6001600160a01b0385811682528416602082015260408101839052608060608201819052600090611c3c90830184611bae565b9695505050505050565b602080825282518282018190526000919060409081850190868401855b82811015611cb557815180518552868101516001600160a01b03908116888701528682015116868601526060808201519086015260809081015115159085015260a09093019290850190600101611c63565b5091979650505050505050565b60208152600061040a6020830184611bae565b6020808252602d908201527f4552433732313a2063616c6c6572206973206e6f7420746f6b656e206f776e6560408201526c1c881bdc88185c1c1c9bdd9959609a1b606082015260800190565b60208082526032908201527f4552433732313a207472616e7366657220746f206e6f6e20455243373231526560408201527131b2b4bb32b91034b6b83632b6b2b73a32b960711b606082015260800190565b60208082526025908201527f4552433732313a207472616e736665722066726f6d20696e636f72726563742060408201526437bbb732b960d91b606082015260800190565b60008219821115611dcc57611dcc611e6a565b500190565b600082821015611de357611de3611e6a565b500390565b60005b83811015611e03578181015183820152602001611deb565b83811115610a9d5750506000910152565b600181811c90821680611e2857607f821691505b60208210811415611e4957634e487b7160e01b600052602260045260246000fd5b50919050565b6000600019821415611e6357611e63611e6a565b5060010190565b634e487b7160e01b600052601160045260246000fd5b634e487b7160e01b600052604160045260246000fd5b6001600160e01b031981168114610fc157600080fdfea2646970667358221220038230f533171fbc8595e9388f659ea0708e444104c07a37de20cfa93864f9a564736f6c63430008040033",
  "linkReferences": {},
  "deployedLinkReferences": {}
}