{
  "_format": "hh-sol-artifact-1",
  "contractName": "PinRIT",
  "sourceName": "contracts/PinRIT.sol",
  "abi": [
    {
      "inputs": [],
      "stateMutability": "nonpayable",
      "type": "constructor"
    },
    {
      "anonymous": false,
      "inputs": [
        {
          "indexed": true,
          "internalType": "address",
          "name": "owner",
          "type": "address"
        },
        {
          "indexed": true,
          "internalType": "address",
          "name": "approved",
          "type": "address"
        },
        {
          "indexed": true,
          "internalType": "uint256",
          "name": "tokenId",
          "type": "uint256"
        }
      ],
      "name": "Approval",
      "type": "event"
    },
    {
      "anonymous": false,
      "inputs": [
        {
          "indexed": true,
          "internalType": "address",
          "name": "owner",
          "type": "address"
        },
        {
          "indexed": true,
          "internalType": "address",
          "name": "operator",
          "type": "address"
        },
        {
          "indexed": false,
          "internalType": "bool",
          "name": "approved",
          "type": "bool"
        }
      ],
      "name": "ApprovalForAll",
      "type": "event"
    },
    {
      "anonymous": false,
      "inputs": [
        {
          "indexed": true,
          "internalType": "address",
          "name": "from",
          "type": "address"
        },
        {
          "indexed": true,
          "internalType": "address",
          "name": "to",
          "type": "address"
        },
        {
          "indexed": true,
          "internalType": "uint256",
          "name": "tokenId",
          "type": "uint256"
        }
      ],
      "name": "Transfer",
      "type": "event"
    },
    {
      "inputs": [
        {
          "internalType": "address",
          "name": "to",
          "type": "address"
        },
        {
          "internalType": "uint256",
          "name": "tokenId",
          "type": "uint256"
        }
      ],
      "name": "approve",
      "outputs": [],
      "stateMutability": "nonpayable",
      "type": "function"
    },
    {
      "inputs": [
        {
          "internalType": "address",
          "name": "owner",
          "type": "address"
        }
      ],
      "name": "balanceOf",
      "outputs": [
        {
          "internalType": "uint256",
          "name": "",
          "type": "uint256"
        }
      ],
      "stateMutability": "view",
      "type": "function"
    },
    {
      "inputs": [
        {
          "internalType": "uint256",
          "name": "tokenId",
          "type": "uint256"
        }
      ],
      "name": "getApproved",
      "outputs": [
        {
          "internalType": "address",
          "name": "",
          "type": "address"
        }
      ],
      "stateMutability": "view",
      "type": "function"
    },
    {
      "inputs": [
        {
          "internalType": "address",
          "name": "owner",
          "type": "address"
        },
        {
          "internalType": "address",
          "name": "operator",
          "type": "address"
        }
      ],
      "name": "isApprovedForAll",
      "outputs": [
        {
          "internalType": "bool",
          "name": "",
          "type": "bool"
        }
      ],
      "stateMutability": "view",
      "type": "function"
    },
    {
      "inputs": [
        {
          "internalType": "string",
          "name": "tokenURI",
          "type": "string"
        },
        {
          "internalType": "uint256",
          "name": "price",
          "type": "uint256"
        }
      ],
      "name": "mint",
      "outputs": [
        {
          "internalType": "uint256",
          "name": "",
          "type": "uint256"
        }
      ],
      "stateMutability": "payable",
      "type": "function"
    },
    {
      "inputs": [],
      "name": "name",
      "outputs": [
        {
          "internalType": "string",
          "name": "",
          "type": "string"
        }
      ],
      "stateMutability": "view",
      "type": "function"
    },
    {
      "inputs": [
        {
          "internalType": "uint256",
          "name": "tokenId",
          "type": "uint256"
        }
      ],
      "name": "ownerOf",
      "outputs": [
        {
          "internalType": "address",
          "name": "",
          "type": "address"
        }
      ],
      "stateMutability": "view",
      "type": "function"
    },
    {
      "inputs": [
        {
          "internalType": "address",
          "name": "from",
          "type": "address"
        },
        {
          "internalType": "address",
          "name": "to",
          "type": "address"
        },
        {
          "internalType": "uint256",
          "name": "tokenId",
          "type": "uint256"
        }
      ],
      "name": "safeTransferFrom",
      "outputs": [],
      "stateMutability": "nonpayable",
      "type": "function"
    },
    {
      "inputs": [
        {
          "internalType": "address",
          "name": "from",
          "type": "address"
        },
        {
          "internalType": "address",
          "name": "to",
          "type": "address"
        },
        {
          "internalType": "uint256",
          "name": "tokenId",
          "type": "uint256"
        },
        {
          "internalType": "bytes",
          "name": "data",
          "type": "bytes"
        }
      ],
      "name": "safeTransferFrom",
      "outputs": [],
      "stateMutability": "nonpayable",
      "type": "function"
    },
    {
      "inputs": [
        {
          "internalType": "address",
          "name": "operator",
          "type": "address"
        },
        {
          "internalType": "bool",
          "name": "approved",
          "type": "bool"
        }
      ],
      "name": "setApprovalForAll",
      "outputs": [],
      "stateMutability": "nonpayable",
      "type": "function"
    },
    {
      "inputs": [
        {
          "internalType": "bytes4",
          "name": "interfaceId",
          "type": "bytes4"
        }
      ],
      "name": "supportsInterface",
      "outputs": [
        {
          "internalType": "bool",
          "name": "",
          "type": "bool"
        }
      ],
      "stateMutability": "view",
      "type": "function"
    },
    {
      "inputs": [],
      "name": "symbol",
      "outputs": [
        {
          "internalType": "string",
          "name": "",
          "type": "string"
        }
      ],
      "stateMutability": "view",
      "type": "function"
    },
    {
      "inputs": [
        {
          "internalType": "uint256",
          "name": "tokenId",
          "type": "uint256"
        }
      ],
      "name": "tokenURI",
      "outputs": [
        {
          "internalType": "string",
          "name": "",
          "type": "string"
        }
      ],
      "stateMutability": "view",
      "type": "function"
    },
    {
      "inputs": [
        {
          "internalType": "address",
          "name": "from",
          "type": "address"
        },
        {
          "internalType": "address",
          "name": "to",
          "type": "address"
        },
        {
          "internalType": "uint256",
          "name": "tokenId",
          "type": "uint256"
        }
      ],
      "name": "transferFrom",
      "outputs": [],
      "stateMutability": "nonpayable",
      "type": "function"
    }
  ],
  "bytecode": "0x608060405266038d7ea4c680006009553480156200001c57600080fd5b506040805180820182526006815265141a5b94925560d21b60208083019182528351808501909452600384526213919560ea1b908401528151919291620000669160009162000097565b5080516200007c90600190602084019062000097565b5050600880546001600160a01b03191633179055506200017a565b828054620000a5906200013d565b90600052602060002090601f016020900481019282620000c9576000855562000114565b82601f10620000e457805160ff191683800117855562000114565b8280016001018555821562000114579182015b8281111562000114578251825591602001919060010190620000f7565b506200012292915062000126565b5090565b5b8082111562000122576000815560010162000127565b600181811c908216806200015257607f821691505b602082108114156200017457634e487b7160e01b600052602260045260246000fd5b50919050565b611786806200018a6000396000f3fe6080604052600436106100dd5760003560e01c80636352211e1161007f578063a22cb46511610059578063a22cb46514610249578063b88d4fde14610269578063c87b56dd14610289578063e985e9c5146102a957600080fd5b80636352211e146101f457806370a082311461021457806395d89b411461023457600080fd5b8063081812fc116100bb578063081812fc1461015a578063095ea7b31461019257806323b872dd146101b457806342842e0e146101d457600080fd5b806301ffc9a7146100e2578063056b01ce1461011757806306fdde0314610138575b600080fd5b3480156100ee57600080fd5b506101026100fd366004611443565b6102f2565b60405190151581526020015b60405180910390f35b61012a61012536600461147b565b610344565b60405190815260200161010e565b34801561014457600080fd5b5061014d61037c565b60405161010e9190611581565b34801561016657600080fd5b5061017a6101753660046114d1565b61040e565b6040516001600160a01b03909116815260200161010e565b34801561019e57600080fd5b506101b26101ad36600461141a565b610435565b005b3480156101c057600080fd5b506101b26101cf36600461132c565b610550565b3480156101e057600080fd5b506101b26101ef36600461132c565b610581565b34801561020057600080fd5b5061017a61020f3660046114d1565b61059c565b34801561022057600080fd5b5061012a61022f3660046112e0565b6105fc565b34801561024057600080fd5b5061014d610682565b34801561025557600080fd5b506101b26102643660046113e0565b610691565b34801561027557600080fd5b506101b2610284366004611367565b6106a0565b34801561029557600080fd5b5061014d6102a43660046114d1565b6106d8565b3480156102b557600080fd5b506101026102c43660046112fa565b6001600160a01b03918216600090815260056020908152604080832093909416825291909152205460ff1690565b60006001600160e01b031982166380ac58cd60e01b148061032357506001600160e01b03198216635b5e139f60e01b145b8061033e57506301ffc9a760e01b6001600160e01b03198316145b92915050565b6000610354600780546001019055565b600061035f60075490565b905061036b33826107e9565b6103758185610803565b9392505050565b60606000805461038b906116d3565b80601f01602080910402602001604051908101604052809291908181526020018280546103b7906116d3565b80156104045780601f106103d957610100808354040283529160200191610404565b820191906000526020600020905b8154815290600101906020018083116103e757829003601f168201915b5050505050905090565b60006104198261089d565b506000908152600460205260409020546001600160a01b031690565b60006104408261059c565b9050806001600160a01b0316836001600160a01b031614156104b35760405162461bcd60e51b815260206004820152602160248201527f4552433732313a20617070726f76616c20746f2063757272656e74206f776e656044820152603960f91b60648201526084015b60405180910390fd5b336001600160a01b03821614806104cf57506104cf81336102c4565b6105415760405162461bcd60e51b815260206004820152603d60248201527f4552433732313a20617070726f76652063616c6c6572206973206e6f7420746f60448201527f6b656e206f776e6572206f7220617070726f76656420666f7220616c6c00000060648201526084016104aa565b61054b83836108ff565b505050565b61055a338261096d565b6105765760405162461bcd60e51b81526004016104aa90611594565b61054b8383836109eb565b61054b838383604051806020016040528060008152506106a0565b6000818152600260205260408120546001600160a01b03168061033e5760405162461bcd60e51b8152602060048201526018602482015277115490cdcc8c4e881a5b9d985b1a59081d1bdad95b88125160421b60448201526064016104aa565b60006001600160a01b0382166106665760405162461bcd60e51b815260206004820152602960248201527f4552433732313a2061646472657373207a65726f206973206e6f7420612076616044820152683634b21037bbb732b960b91b60648201526084016104aa565b506001600160a01b031660009081526003602052604090205490565b60606001805461038b906116d3565b61069c338383610b5c565b5050565b6106aa338361096d565b6106c65760405162461bcd60e51b81526004016104aa90611594565b6106d284848484610c2b565b50505050565b60606106e38261089d565b600082815260066020526040812080546106fc906116d3565b80601f0160208091040260200160405190810160405280929190818152602001828054610728906116d3565b80156107755780601f1061074a57610100808354040283529160200191610775565b820191906000526020600020905b81548152906001019060200180831161075857829003601f168201915b50505050509050600061079360408051602081019091526000815290565b90508051600014156107a6575092915050565b8151156107d85780826040516020016107c0929190611515565b60405160208183030381529060405292505050919050565b6107e184610c5e565b949350505050565b61069c828260405180602001604052806000815250610cd1565b6000828152600260205260409020546001600160a01b031661087e5760405162461bcd60e51b815260206004820152602e60248201527f45524337323155524953746f726167653a2055524920736574206f66206e6f6e60448201526d32bc34b9ba32b73a103a37b5b2b760911b60648201526084016104aa565b6000828152600660209081526040909120825161054b928401906111b5565b6000818152600260205260409020546001600160a01b03166108fc5760405162461bcd60e51b8152602060048201526018602482015277115490cdcc8c4e881a5b9d985b1a59081d1bdad95b88125160421b60448201526064016104aa565b50565b600081815260046020526040902080546001600160a01b0319166001600160a01b03841690811790915581906109348261059c565b6001600160a01b03167f8c5be1e5ebec7d5bd14f71427d1e84f3dd0314c0f7b2291e5b200ac8c7c3b92560405160405180910390a45050565b6000806109798361059c565b9050806001600160a01b0316846001600160a01b031614806109c057506001600160a01b0380821660009081526005602090815260408083209388168352929052205460ff165b806107e15750836001600160a01b03166109d98461040e565b6001600160a01b031614949350505050565b826001600160a01b03166109fe8261059c565b6001600160a01b031614610a245760405162461bcd60e51b81526004016104aa90611633565b6001600160a01b038216610a865760405162461bcd60e51b8152602060048201526024808201527f4552433732313a207472616e7366657220746f20746865207a65726f206164646044820152637265737360e01b60648201526084016104aa565b610a938383836001610d04565b826001600160a01b0316610aa68261059c565b6001600160a01b031614610acc5760405162461bcd60e51b81526004016104aa90611633565b600081815260046020908152604080832080546001600160a01b03199081169091556001600160a01b0387811680865260038552838620805460001901905590871680865283862080546001019055868652600290945282852080549092168417909155905184937fddf252ad1be2c89b69c2b068fc378daa952ba7f163c4a11628f55a4df523b3ef91a4505050565b816001600160a01b0316836001600160a01b03161415610bbe5760405162461bcd60e51b815260206004820152601960248201527f4552433732313a20617070726f766520746f2063616c6c65720000000000000060448201526064016104aa565b6001600160a01b03838116600081815260056020908152604080832094871680845294825291829020805460ff191686151590811790915591519182527f17307eab39ab6107e8899845ad3d59bd9653f200f220920489ca2b5937696c31910160405180910390a3505050565b610c368484846109eb565b610c4284848484610d8c565b6106d25760405162461bcd60e51b81526004016104aa906115e1565b6060610c698261089d565b6000610c8060408051602081019091526000815290565b90506000815111610ca05760405180602001604052806000815250610375565b80610caa84610e99565b604051602001610cbb929190611515565b6040516020818303038152906040529392505050565b610cdb8383610f44565b610ce86000848484610d8c565b61054b5760405162461bcd60e51b81526004016104aa906115e1565b60018111156106d2576001600160a01b03841615610d4a576001600160a01b03841660009081526003602052604081208054839290610d44908490611690565b90915550505b6001600160a01b038316156106d2576001600160a01b03831660009081526003602052604081208054839290610d81908490611678565b909155505050505050565b60006001600160a01b0384163b15610e8e57604051630a85bd0160e11b81526001600160a01b0385169063150b7a0290610dd0903390899088908890600401611544565b602060405180830381600087803b158015610dea57600080fd5b505af1925050508015610e1a575060408051601f3d908101601f19168201909252610e179181019061145f565b60015b610e74573d808015610e48576040519150601f19603f3d011682016040523d82523d6000602084013e610e4d565b606091505b508051610e6c5760405162461bcd60e51b81526004016104aa906115e1565b805181602001fd5b6001600160e01b031916630a85bd0160e11b1490506107e1565b506001949350505050565b60606000610ea6836110dd565b600101905060008167ffffffffffffffff811115610ed457634e487b7160e01b600052604160045260246000fd5b6040519080825280601f01601f191660200182016040528015610efe576020820181803683370190505b5090508181016020015b600019016f181899199a1a9b1b9c1cb0b131b232b360811b600a86061a8153600a8504945084610f3757610f3c565b610f08565b509392505050565b6001600160a01b038216610f9a5760405162461bcd60e51b815260206004820181905260248201527f4552433732313a206d696e7420746f20746865207a65726f206164647265737360448201526064016104aa565b6000818152600260205260409020546001600160a01b031615610fff5760405162461bcd60e51b815260206004820152601c60248201527f4552433732313a20746f6b656e20616c7265616479206d696e7465640000000060448201526064016104aa565b61100d600083836001610d04565b6000818152600260205260409020546001600160a01b0316156110725760405162461bcd60e51b815260206004820152601c60248201527f4552433732313a20746f6b656e20616c7265616479206d696e7465640000000060448201526064016104aa565b6001600160a01b038216600081815260036020908152604080832080546001019055848352600290915280822080546001600160a01b0319168417905551839291907fddf252ad1be2c89b69c2b068fc378daa952ba7f163c4a11628f55a4df523b3ef908290a45050565b60008072184f03e93ff9f4daa797ed6e38ed64bf6a1f0160401b831061111c5772184f03e93ff9f4daa797ed6e38ed64bf6a1f0160401b830492506040015b6d04ee2d6d415b85acef81000000008310611148576d04ee2d6d415b85acef8100000000830492506020015b662386f26fc10000831061116657662386f26fc10000830492506010015b6305f5e100831061117e576305f5e100830492506008015b612710831061119257612710830492506004015b606483106111a4576064830492506002015b600a831061033e5760010192915050565b8280546111c1906116d3565b90600052602060002090601f0160209004810192826111e35760008555611229565b82601f106111fc57805160ff1916838001178555611229565b82800160010185558215611229579182015b8281111561122957825182559160200191906001019061120e565b50611235929150611239565b5090565b5b80821115611235576000815560010161123a565b600067ffffffffffffffff8084111561126957611269611724565b604051601f8501601f19908116603f0116810190828211818310171561129157611291611724565b816040528093508581528686860111156112aa57600080fd5b858560208301376000602087830101525050509392505050565b80356001600160a01b03811681146112db57600080fd5b919050565b6000602082840312156112f1578081fd5b610375826112c4565b6000806040838503121561130c578081fd5b611315836112c4565b9150611323602084016112c4565b90509250929050565b600080600060608486031215611340578081fd5b611349846112c4565b9250611357602085016112c4565b9150604084013590509250925092565b6000806000806080858703121561137c578081fd5b611385856112c4565b9350611393602086016112c4565b925060408501359150606085013567ffffffffffffffff8111156113b5578182fd5b8501601f810187136113c5578182fd5b6113d48782356020840161124e565b91505092959194509250565b600080604083850312156113f2578182fd5b6113fb836112c4565b91506020830135801515811461140f578182fd5b809150509250929050565b6000806040838503121561142c578182fd5b611435836112c4565b946020939093013593505050565b600060208284031215611454578081fd5b81356103758161173a565b600060208284031215611470578081fd5b81516103758161173a565b6000806040838503121561148d578182fd5b823567ffffffffffffffff8111156114a3578283fd5b8301601f810185136114b3578283fd5b6114c28582356020840161124e565b95602094909401359450505050565b6000602082840312156114e2578081fd5b5035919050565b600081518084526115018160208601602086016116a7565b601f01601f19169290920160200192915050565b600083516115278184602088016116a7565b83519083019061153b8183602088016116a7565b01949350505050565b6001600160a01b0385811682528416602082015260408101839052608060608201819052600090611577908301846114e9565b9695505050505050565b60208152600061037560208301846114e9565b6020808252602d908201527f4552433732313a2063616c6c6572206973206e6f7420746f6b656e206f776e6560408201526c1c881bdc88185c1c1c9bdd9959609a1b606082015260800190565b60208082526032908201527f4552433732313a207472616e7366657220746f206e6f6e20455243373231526560408201527131b2b4bb32b91034b6b83632b6b2b73a32b960711b606082015260800190565b60208082526025908201527f4552433732313a207472616e736665722066726f6d20696e636f72726563742060408201526437bbb732b960d91b606082015260800190565b6000821982111561168b5761168b61170e565b500190565b6000828210156116a2576116a261170e565b500390565b60005b838110156116c25781810151838201526020016116aa565b838111156106d25750506000910152565b600181811c908216806116e757607f821691505b6020821081141561170857634e487b7160e01b600052602260045260246000fd5b50919050565b634e487b7160e01b600052601160045260246000fd5b634e487b7160e01b600052604160045260246000fd5b6001600160e01b0319811681146108fc57600080fdfea26469706673582212204a3fbf224568d7254b2d555d21f08ed4325ebb17f728fc1258728559368dce0b64736f6c63430008040033",
  "linkReferences": {},
  "deployedLinkReferences": {}
}