{
  "_format": "hh-sol-artifact-1",
  "contractName": "PinRIT",
  "sourceName": "contracts/PinRIT.sol",
  "abi": [
    {
      "inputs": [],
      "stateMutability": "nonpayable",
      "type": "constructor"
    },
    {
      "anonymous": false,
      "inputs": [
        {
          "indexed": true,
          "internalType": "address",
          "name": "owner",
          "type": "address"
        },
        {
          "indexed": true,
          "internalType": "address",
          "name": "approved",
          "type": "address"
        },
        {
          "indexed": true,
          "internalType": "uint256",
          "name": "tokenId",
          "type": "uint256"
        }
      ],
      "name": "Approval",
      "type": "event"
    },
    {
      "anonymous": false,
      "inputs": [
        {
          "indexed": true,
          "internalType": "address",
          "name": "owner",
          "type": "address"
        },
        {
          "indexed": true,
          "internalType": "address",
          "name": "operator",
          "type": "address"
        },
        {
          "indexed": false,
          "internalType": "bool",
          "name": "approved",
          "type": "bool"
        }
      ],
      "name": "ApprovalForAll",
      "type": "event"
    },
    {
      "anonymous": false,
      "inputs": [
        {
          "indexed": true,
          "internalType": "uint256",
          "name": "tokenID",
          "type": "uint256"
        },
        {
          "indexed": false,
          "internalType": "address",
          "name": "owner",
          "type": "address"
        },
        {
          "indexed": false,
          "internalType": "address",
          "name": "seller",
          "type": "address"
        },
        {
          "indexed": false,
          "internalType": "uint256",
          "name": "price",
          "type": "uint256"
        },
        {
          "indexed": false,
          "internalType": "bool",
          "name": "currentlyListed",
          "type": "bool"
        }
      ],
      "name": "MintedNFTSuccess",
      "type": "event"
    },
    {
      "anonymous": false,
      "inputs": [
        {
          "indexed": true,
          "internalType": "address",
          "name": "from",
          "type": "address"
        },
        {
          "indexed": true,
          "internalType": "address",
          "name": "to",
          "type": "address"
        },
        {
          "indexed": true,
          "internalType": "uint256",
          "name": "tokenId",
          "type": "uint256"
        }
      ],
      "name": "Transfer",
      "type": "event"
    },
    {
      "inputs": [
        {
          "internalType": "address",
          "name": "to",
          "type": "address"
        },
        {
          "internalType": "uint256",
          "name": "tokenId",
          "type": "uint256"
        }
      ],
      "name": "approve",
      "outputs": [],
      "stateMutability": "nonpayable",
      "type": "function"
    },
    {
      "inputs": [
        {
          "internalType": "address",
          "name": "owner",
          "type": "address"
        }
      ],
      "name": "balanceOf",
      "outputs": [
        {
          "internalType": "uint256",
          "name": "",
          "type": "uint256"
        }
      ],
      "stateMutability": "view",
      "type": "function"
    },
    {
      "inputs": [],
      "name": "getAllNFTs",
      "outputs": [
        {
          "components": [
            {
              "internalType": "uint256",
              "name": "tokenID",
              "type": "uint256"
            },
            {
              "internalType": "address payable",
              "name": "owner",
              "type": "address"
            },
            {
              "internalType": "address payable",
              "name": "seller",
              "type": "address"
            },
            {
              "internalType": "uint256",
              "name": "price",
              "type": "uint256"
            },
            {
              "internalType": "bool",
              "name": "currentlyListed",
              "type": "bool"
            }
          ],
          "internalType": "struct PinRIT.MintedNFT[]",
          "name": "",
          "type": "tuple[]"
        }
      ],
      "stateMutability": "view",
      "type": "function"
    },
    {
      "inputs": [
        {
          "internalType": "uint256",
          "name": "tokenId",
          "type": "uint256"
        }
      ],
      "name": "getApproved",
      "outputs": [
        {
          "internalType": "address",
          "name": "",
          "type": "address"
        }
      ],
      "stateMutability": "view",
      "type": "function"
    },
    {
      "inputs": [],
      "name": "getListPrice",
      "outputs": [
        {
          "internalType": "uint256",
          "name": "",
          "type": "uint256"
        }
      ],
      "stateMutability": "view",
      "type": "function"
    },
    {
      "inputs": [
        {
          "internalType": "address",
          "name": "owner",
          "type": "address"
        },
        {
          "internalType": "address",
          "name": "operator",
          "type": "address"
        }
      ],
      "name": "isApprovedForAll",
      "outputs": [
        {
          "internalType": "bool",
          "name": "",
          "type": "bool"
        }
      ],
      "stateMutability": "view",
      "type": "function"
    },
    {
      "inputs": [
        {
          "internalType": "string",
          "name": "tokenURI",
          "type": "string"
        },
        {
          "internalType": "uint256",
          "name": "price",
          "type": "uint256"
        }
      ],
      "name": "mint",
      "outputs": [
        {
          "internalType": "uint256",
          "name": "",
          "type": "uint256"
        }
      ],
      "stateMutability": "payable",
      "type": "function"
    },
    {
      "inputs": [],
      "name": "name",
      "outputs": [
        {
          "internalType": "string",
          "name": "",
          "type": "string"
        }
      ],
      "stateMutability": "view",
      "type": "function"
    },
    {
      "inputs": [
        {
          "internalType": "uint256",
          "name": "tokenId",
          "type": "uint256"
        }
      ],
      "name": "ownerOf",
      "outputs": [
        {
          "internalType": "address",
          "name": "",
          "type": "address"
        }
      ],
      "stateMutability": "view",
      "type": "function"
    },
    {
      "inputs": [
        {
          "internalType": "address",
          "name": "from",
          "type": "address"
        },
        {
          "internalType": "address",
          "name": "to",
          "type": "address"
        },
        {
          "internalType": "uint256",
          "name": "tokenId",
          "type": "uint256"
        }
      ],
      "name": "safeTransferFrom",
      "outputs": [],
      "stateMutability": "nonpayable",
      "type": "function"
    },
    {
      "inputs": [
        {
          "internalType": "address",
          "name": "from",
          "type": "address"
        },
        {
          "internalType": "address",
          "name": "to",
          "type": "address"
        },
        {
          "internalType": "uint256",
          "name": "tokenId",
          "type": "uint256"
        },
        {
          "internalType": "bytes",
          "name": "data",
          "type": "bytes"
        }
      ],
      "name": "safeTransferFrom",
      "outputs": [],
      "stateMutability": "nonpayable",
      "type": "function"
    },
    {
      "inputs": [
        {
          "internalType": "address",
          "name": "operator",
          "type": "address"
        },
        {
          "internalType": "bool",
          "name": "approved",
          "type": "bool"
        }
      ],
      "name": "setApprovalForAll",
      "outputs": [],
      "stateMutability": "nonpayable",
      "type": "function"
    },
    {
      "inputs": [
        {
          "internalType": "bytes4",
          "name": "interfaceId",
          "type": "bytes4"
        }
      ],
      "name": "supportsInterface",
      "outputs": [
        {
          "internalType": "bool",
          "name": "",
          "type": "bool"
        }
      ],
      "stateMutability": "view",
      "type": "function"
    },
    {
      "inputs": [],
      "name": "symbol",
      "outputs": [
        {
          "internalType": "string",
          "name": "",
          "type": "string"
        }
      ],
      "stateMutability": "view",
      "type": "function"
    },
    {
      "inputs": [
        {
          "internalType": "uint256",
          "name": "tokenId",
          "type": "uint256"
        }
      ],
      "name": "tokenURI",
      "outputs": [
        {
          "internalType": "string",
          "name": "",
          "type": "string"
        }
      ],
      "stateMutability": "view",
      "type": "function"
    },
    {
      "inputs": [
        {
          "internalType": "address",
          "name": "from",
          "type": "address"
        },
        {
          "internalType": "address",
          "name": "to",
          "type": "address"
        },
        {
          "internalType": "uint256",
          "name": "tokenId",
          "type": "uint256"
        }
      ],
      "name": "transferFrom",
      "outputs": [],
      "stateMutability": "nonpayable",
      "type": "function"
    }
  ],
  "bytecode": "0x608060405266038d7ea4c680006009553480156200001c57600080fd5b506040805180820182526006815265141a5b94925560d21b60208083019182528351808501909452600384526213919560ea1b908401528151919291620000669160009162000097565b5080516200007c90600190602084019062000097565b5050600880546001600160a01b03191633179055506200017a565b828054620000a5906200013d565b90600052602060002090601f016020900481019282620000c9576000855562000114565b82601f10620000e457805160ff191683800117855562000114565b8280016001018555821562000114579182015b8281111562000114578251825591602001919060010190620000f7565b506200012292915062000126565b5090565b5b8082111562000122576000815560010162000127565b600181811c908216806200015257607f821691505b602082108114156200017457634e487b7160e01b600052602260045260246000fd5b50919050565b611b6e806200018a6000396000f3fe6080604052600436106100f35760003560e01c806368f1945f1161008a578063b88d4fde11610059578063b88d4fde14610294578063c87b56dd146102b4578063e0391b09146102d4578063e985e9c5146102f657600080fd5b806368f1945f1461022a57806370a082311461023f57806395d89b411461025f578063a22cb4651461027457600080fd5b8063095ea7b3116100c6578063095ea7b3146101a857806323b872dd146101ca57806342842e0e146101ea5780636352211e1461020a57600080fd5b806301ffc9a7146100f8578063056b01ce1461012d57806306fdde031461014e578063081812fc14610170575b600080fd5b34801561010457600080fd5b50610118610113366004611794565b61033f565b60405190151581526020015b60405180910390f35b61014061013b3660046117cc565b610391565b604051908152602001610124565b34801561015a57600080fd5b506101636103d3565b604051610124919061194e565b34801561017c57600080fd5b5061019061018b366004611822565b610465565b6040516001600160a01b039091168152602001610124565b3480156101b457600080fd5b506101c86101c336600461176b565b61048c565b005b3480156101d657600080fd5b506101c86101e536600461167d565b6105a7565b3480156101f657600080fd5b506101c861020536600461167d565b6105d8565b34801561021657600080fd5b50610190610225366004611822565b6105f3565b34801561023657600080fd5b50600954610140565b34801561024b57600080fd5b5061014061025a366004611631565b610653565b34801561026b57600080fd5b506101636106d9565b34801561028057600080fd5b506101c861028f366004611731565b6106e8565b3480156102a057600080fd5b506101c86102af3660046116b8565b6106f7565b3480156102c057600080fd5b506101636102cf366004611822565b61072f565b3480156102e057600080fd5b506102e9610840565b60405161012491906118d2565b34801561030257600080fd5b5061011861031136600461164b565b6001600160a01b03918216600090815260056020908152604080832093909416825291909152205460ff1690565b60006001600160e01b031982166380ac58cd60e01b148061037057506001600160e01b03198216635b5e139f60e01b145b8061038b57506301ffc9a760e01b6001600160e01b03198316145b92915050565b60006103a1600780546001019055565b60006103ac60075490565b90506103b833826109a7565b6103c281856109c1565b6103cc8184610a5b565b9392505050565b6060600080546103e290611aa0565b80601f016020809104026020016040519081016040528092919081815260200182805461040e90611aa0565b801561045b5780601f106104305761010080835404028352916020019161045b565b820191906000526020600020905b81548152906001019060200180831161043e57829003601f168201915b5050505050905090565b600061047082610bee565b506000908152600460205260409020546001600160a01b031690565b6000610497826105f3565b9050806001600160a01b0316836001600160a01b0316141561050a5760405162461bcd60e51b815260206004820152602160248201527f4552433732313a20617070726f76616c20746f2063757272656e74206f776e656044820152603960f91b60648201526084015b60405180910390fd5b336001600160a01b038216148061052657506105268133610311565b6105985760405162461bcd60e51b815260206004820152603d60248201527f4552433732313a20617070726f76652063616c6c6572206973206e6f7420746f60448201527f6b656e206f776e6572206f7220617070726f76656420666f7220616c6c0000006064820152608401610501565b6105a28383610c50565b505050565b6105b13382610cbe565b6105cd5760405162461bcd60e51b815260040161050190611961565b6105a2838383610d3c565b6105a2838383604051806020016040528060008152506106f7565b6000818152600260205260408120546001600160a01b03168061038b5760405162461bcd60e51b8152602060048201526018602482015277115490cdcc8c4e881a5b9d985b1a59081d1bdad95b88125160421b6044820152606401610501565b60006001600160a01b0382166106bd5760405162461bcd60e51b815260206004820152602960248201527f4552433732313a2061646472657373207a65726f206973206e6f7420612076616044820152683634b21037bbb732b960b91b6064820152608401610501565b506001600160a01b031660009081526003602052604090205490565b6060600180546103e290611aa0565b6106f3338383610ead565b5050565b6107013383610cbe565b61071d5760405162461bcd60e51b815260040161050190611961565b61072984848484610f7c565b50505050565b606061073a82610bee565b6000828152600660205260408120805461075390611aa0565b80601f016020809104026020016040519081016040528092919081815260200182805461077f90611aa0565b80156107cc5780601f106107a1576101008083540402835291602001916107cc565b820191906000526020600020905b8154815290600101906020018083116107af57829003601f168201915b5050505050905060006107ea60408051602081019091526000815290565b90508051600014156107fd575092915050565b81511561082f578082604051602001610817929190611866565b60405160208183030381529060405292505050919050565b61083884610faf565b949350505050565b6060600061084d60075490565b905060008167ffffffffffffffff81111561087857634e487b7160e01b600052604160045260246000fd5b6040519080825280602002602001820160405280156108d157816020015b6040805160a0810182526000808252602080830182905292820181905260608201819052608082015282526000199092019101816108965790505b5090506000805b8381101561099e5760006108ed826001611a45565b6000818152600a6020908152604091829020825160a0810184528154815260018201546001600160a01b039081169382019390935260028201549092169282019290925260038201546060820152600482015460ff16151560808201528651929350909186908690811061097157634e487b7160e01b600052603260045260246000fd5b6020908102919091010152610987600185611a45565b93505050808061099690611adb565b9150506108d8565b50909392505050565b6106f3828260405180602001604052806000815250611022565b6000828152600260205260409020546001600160a01b0316610a3c5760405162461bcd60e51b815260206004820152602e60248201527f45524337323155524953746f726167653a2055524920736574206f66206e6f6e60448201526d32bc34b9ba32b73a103a37b5b2b760911b6064820152608401610501565b600082815260066020908152604090912082516105a292840190611506565b6009543414610aa15760405162461bcd60e51b8152602060048201526012602482015271496e73756666696369656e742066756e647360701b6044820152606401610501565b60008111610b045760405162461bcd60e51b815260206004820152602a60248201527f546861742073686f756c642062652067726561746572207468616e207a65726f604482015269081b5e48199c9a595b9960b21b6064820152608401610501565b6040805160a081018252838152306020808301828152338486018181526060860188815260016080880181815260008c8152600a9097529890952096518755925193860180546001600160a01b039586166001600160a01b03199182161790915590516002870180549190951691161790925551600384015592516004909201805492151560ff1990931692909217909155610ba1919084610d3c565b604080513081523360208201529081018290526001606082015282907fb60d6af69262395d36bb74b07486da09c1637bef4d2e26be4702a871091e28399060800160405180910390a25050565b6000818152600260205260409020546001600160a01b0316610c4d5760405162461bcd60e51b8152602060048201526018602482015277115490cdcc8c4e881a5b9d985b1a59081d1bdad95b88125160421b6044820152606401610501565b50565b600081815260046020526040902080546001600160a01b0319166001600160a01b0384169081179091558190610c85826105f3565b6001600160a01b03167f8c5be1e5ebec7d5bd14f71427d1e84f3dd0314c0f7b2291e5b200ac8c7c3b92560405160405180910390a45050565b600080610cca836105f3565b9050806001600160a01b0316846001600160a01b03161480610d1157506001600160a01b0380821660009081526005602090815260408083209388168352929052205460ff165b806108385750836001600160a01b0316610d2a84610465565b6001600160a01b031614949350505050565b826001600160a01b0316610d4f826105f3565b6001600160a01b031614610d755760405162461bcd60e51b815260040161050190611a00565b6001600160a01b038216610dd75760405162461bcd60e51b8152602060048201526024808201527f4552433732313a207472616e7366657220746f20746865207a65726f206164646044820152637265737360e01b6064820152608401610501565b610de48383836001611055565b826001600160a01b0316610df7826105f3565b6001600160a01b031614610e1d5760405162461bcd60e51b815260040161050190611a00565b600081815260046020908152604080832080546001600160a01b03199081169091556001600160a01b0387811680865260038552838620805460001901905590871680865283862080546001019055868652600290945282852080549092168417909155905184937fddf252ad1be2c89b69c2b068fc378daa952ba7f163c4a11628f55a4df523b3ef91a4505050565b816001600160a01b0316836001600160a01b03161415610f0f5760405162461bcd60e51b815260206004820152601960248201527f4552433732313a20617070726f766520746f2063616c6c6572000000000000006044820152606401610501565b6001600160a01b03838116600081815260056020908152604080832094871680845294825291829020805460ff191686151590811790915591519182527f17307eab39ab6107e8899845ad3d59bd9653f200f220920489ca2b5937696c31910160405180910390a3505050565b610f87848484610d3c565b610f93848484846110dd565b6107295760405162461bcd60e51b8152600401610501906119ae565b6060610fba82610bee565b6000610fd160408051602081019091526000815290565b90506000815111610ff157604051806020016040528060008152506103cc565b80610ffb846111ea565b60405160200161100c929190611866565b6040516020818303038152906040529392505050565b61102c8383611295565b61103960008484846110dd565b6105a25760405162461bcd60e51b8152600401610501906119ae565b6001811115610729576001600160a01b0384161561109b576001600160a01b03841660009081526003602052604081208054839290611095908490611a5d565b90915550505b6001600160a01b03831615610729576001600160a01b038316600090815260036020526040812080548392906110d2908490611a45565b909155505050505050565b60006001600160a01b0384163b156111df57604051630a85bd0160e11b81526001600160a01b0385169063150b7a0290611121903390899088908890600401611895565b602060405180830381600087803b15801561113b57600080fd5b505af192505050801561116b575060408051601f3d908101601f19168201909252611168918101906117b0565b60015b6111c5573d808015611199576040519150601f19603f3d011682016040523d82523d6000602084013e61119e565b606091505b5080516111bd5760405162461bcd60e51b8152600401610501906119ae565b805181602001fd5b6001600160e01b031916630a85bd0160e11b149050610838565b506001949350505050565b606060006111f78361142e565b600101905060008167ffffffffffffffff81111561122557634e487b7160e01b600052604160045260246000fd5b6040519080825280601f01601f19166020018201604052801561124f576020820181803683370190505b5090508181016020015b600019016f181899199a1a9b1b9c1cb0b131b232b360811b600a86061a8153600a85049450846112885761128d565b611259565b509392505050565b6001600160a01b0382166112eb5760405162461bcd60e51b815260206004820181905260248201527f4552433732313a206d696e7420746f20746865207a65726f20616464726573736044820152606401610501565b6000818152600260205260409020546001600160a01b0316156113505760405162461bcd60e51b815260206004820152601c60248201527f4552433732313a20746f6b656e20616c7265616479206d696e746564000000006044820152606401610501565b61135e600083836001611055565b6000818152600260205260409020546001600160a01b0316156113c35760405162461bcd60e51b815260206004820152601c60248201527f4552433732313a20746f6b656e20616c7265616479206d696e746564000000006044820152606401610501565b6001600160a01b038216600081815260036020908152604080832080546001019055848352600290915280822080546001600160a01b0319168417905551839291907fddf252ad1be2c89b69c2b068fc378daa952ba7f163c4a11628f55a4df523b3ef908290a45050565b60008072184f03e93ff9f4daa797ed6e38ed64bf6a1f0160401b831061146d5772184f03e93ff9f4daa797ed6e38ed64bf6a1f0160401b830492506040015b6d04ee2d6d415b85acef81000000008310611499576d04ee2d6d415b85acef8100000000830492506020015b662386f26fc1000083106114b757662386f26fc10000830492506010015b6305f5e10083106114cf576305f5e100830492506008015b61271083106114e357612710830492506004015b606483106114f5576064830492506002015b600a831061038b5760010192915050565b82805461151290611aa0565b90600052602060002090601f016020900481019282611534576000855561157a565b82601f1061154d57805160ff191683800117855561157a565b8280016001018555821561157a579182015b8281111561157a57825182559160200191906001019061155f565b5061158692915061158a565b5090565b5b80821115611586576000815560010161158b565b600067ffffffffffffffff808411156115ba576115ba611b0c565b604051601f8501601f19908116603f011681019082821181831017156115e2576115e2611b0c565b816040528093508581528686860111156115fb57600080fd5b858560208301376000602087830101525050509392505050565b80356001600160a01b038116811461162c57600080fd5b919050565b600060208284031215611642578081fd5b6103cc82611615565b6000806040838503121561165d578081fd5b61166683611615565b915061167460208401611615565b90509250929050565b600080600060608486031215611691578081fd5b61169a84611615565b92506116a860208501611615565b9150604084013590509250925092565b600080600080608085870312156116cd578081fd5b6116d685611615565b93506116e460208601611615565b925060408501359150606085013567ffffffffffffffff811115611706578182fd5b8501601f81018713611716578182fd5b6117258782356020840161159f565b91505092959194509250565b60008060408385031215611743578182fd5b61174c83611615565b915060208301358015158114611760578182fd5b809150509250929050565b6000806040838503121561177d578182fd5b61178683611615565b946020939093013593505050565b6000602082840312156117a5578081fd5b81356103cc81611b22565b6000602082840312156117c1578081fd5b81516103cc81611b22565b600080604083850312156117de578182fd5b823567ffffffffffffffff8111156117f4578283fd5b8301601f81018513611804578283fd5b6118138582356020840161159f565b95602094909401359450505050565b600060208284031215611833578081fd5b5035919050565b60008151808452611852816020860160208601611a74565b601f01601f19169290920160200192915050565b60008351611878818460208801611a74565b83519083019061188c818360208801611a74565b01949350505050565b6001600160a01b03858116825284166020820152604081018390526080606082018190526000906118c89083018461183a565b9695505050505050565b602080825282518282018190526000919060409081850190868401855b8281101561194157815180518552868101516001600160a01b03908116888701528682015116868601526060808201519086015260809081015115159085015260a090930192908501906001016118ef565b5091979650505050505050565b6020815260006103cc602083018461183a565b6020808252602d908201527f4552433732313a2063616c6c6572206973206e6f7420746f6b656e206f776e6560408201526c1c881bdc88185c1c1c9bdd9959609a1b606082015260800190565b60208082526032908201527f4552433732313a207472616e7366657220746f206e6f6e20455243373231526560408201527131b2b4bb32b91034b6b83632b6b2b73a32b960711b606082015260800190565b60208082526025908201527f4552433732313a207472616e736665722066726f6d20696e636f72726563742060408201526437bbb732b960d91b606082015260800190565b60008219821115611a5857611a58611af6565b500190565b600082821015611a6f57611a6f611af6565b500390565b60005b83811015611a8f578181015183820152602001611a77565b838111156107295750506000910152565b600181811c90821680611ab457607f821691505b60208210811415611ad557634e487b7160e01b600052602260045260246000fd5b50919050565b6000600019821415611aef57611aef611af6565b5060010190565b634e487b7160e01b600052601160045260246000fd5b634e487b7160e01b600052604160045260246000fd5b6001600160e01b031981168114610c4d57600080fdfea264697066735822122020b1d6c078165bcdf6e53d0b8458d9568e9377935d350ab0e2a14cc556f58a4364736f6c63430008040033",
  "linkReferences": {},
  "deployedLinkReferences": {}
}