{
  "_format": "hh-sol-artifact-1",
  "contractName": "PinRIT",
  "sourceName": "contracts/PinRIT.sol",
  "abi": [
    {
      "inputs": [],
      "stateMutability": "nonpayable",
      "type": "constructor"
    },
    {
      "anonymous": false,
      "inputs": [
        {
          "indexed": true,
          "internalType": "address",
          "name": "owner",
          "type": "address"
        },
        {
          "indexed": true,
          "internalType": "address",
          "name": "approved",
          "type": "address"
        },
        {
          "indexed": true,
          "internalType": "uint256",
          "name": "tokenId",
          "type": "uint256"
        }
      ],
      "name": "Approval",
      "type": "event"
    },
    {
      "anonymous": false,
      "inputs": [
        {
          "indexed": true,
          "internalType": "address",
          "name": "owner",
          "type": "address"
        },
        {
          "indexed": true,
          "internalType": "address",
          "name": "operator",
          "type": "address"
        },
        {
          "indexed": false,
          "internalType": "bool",
          "name": "approved",
          "type": "bool"
        }
      ],
      "name": "ApprovalForAll",
      "type": "event"
    },
    {
      "anonymous": false,
      "inputs": [
        {
          "indexed": true,
          "internalType": "uint256",
          "name": "tokenID",
          "type": "uint256"
        },
        {
          "indexed": false,
          "internalType": "address",
          "name": "owner",
          "type": "address"
        },
        {
          "indexed": false,
          "internalType": "address",
          "name": "seller",
          "type": "address"
        },
        {
          "indexed": false,
          "internalType": "uint256",
          "name": "price",
          "type": "uint256"
        },
        {
          "indexed": false,
          "internalType": "bool",
          "name": "currentlyListed",
          "type": "bool"
        }
      ],
      "name": "MintedNFTSuccess",
      "type": "event"
    },
    {
      "anonymous": false,
      "inputs": [
        {
          "indexed": true,
          "internalType": "address",
          "name": "from",
          "type": "address"
        },
        {
          "indexed": true,
          "internalType": "address",
          "name": "to",
          "type": "address"
        },
        {
          "indexed": true,
          "internalType": "uint256",
          "name": "tokenId",
          "type": "uint256"
        }
      ],
      "name": "Transfer",
      "type": "event"
    },
    {
      "inputs": [
        {
          "internalType": "address",
          "name": "to",
          "type": "address"
        },
        {
          "internalType": "uint256",
          "name": "tokenId",
          "type": "uint256"
        }
      ],
      "name": "approve",
      "outputs": [],
      "stateMutability": "nonpayable",
      "type": "function"
    },
    {
      "inputs": [
        {
          "internalType": "address",
          "name": "owner",
          "type": "address"
        }
      ],
      "name": "balanceOf",
      "outputs": [
        {
          "internalType": "uint256",
          "name": "",
          "type": "uint256"
        }
      ],
      "stateMutability": "view",
      "type": "function"
    },
    {
      "inputs": [
        {
          "internalType": "uint256",
          "name": "tokenId",
          "type": "uint256"
        }
      ],
      "name": "buyNFT",
      "outputs": [],
      "stateMutability": "payable",
      "type": "function"
    },
    {
      "inputs": [],
      "name": "getAllNFTs",
      "outputs": [
        {
          "components": [
            {
              "internalType": "uint256",
              "name": "tokenID",
              "type": "uint256"
            },
            {
              "internalType": "address payable",
              "name": "owner",
              "type": "address"
            },
            {
              "internalType": "address payable",
              "name": "seller",
              "type": "address"
            },
            {
              "internalType": "uint256",
              "name": "price",
              "type": "uint256"
            },
            {
              "internalType": "bool",
              "name": "currentlyListed",
              "type": "bool"
            }
          ],
          "internalType": "struct PinRIT.MintedNFT[]",
          "name": "",
          "type": "tuple[]"
        }
      ],
      "stateMutability": "view",
      "type": "function"
    },
    {
      "inputs": [
        {
          "internalType": "uint256",
          "name": "tokenId",
          "type": "uint256"
        }
      ],
      "name": "getApproved",
      "outputs": [
        {
          "internalType": "address",
          "name": "",
          "type": "address"
        }
      ],
      "stateMutability": "view",
      "type": "function"
    },
    {
      "inputs": [],
      "name": "getListPrice",
      "outputs": [
        {
          "internalType": "uint256",
          "name": "",
          "type": "uint256"
        }
      ],
      "stateMutability": "view",
      "type": "function"
    },
    {
      "inputs": [
        {
          "internalType": "address",
          "name": "owner",
          "type": "address"
        },
        {
          "internalType": "address",
          "name": "operator",
          "type": "address"
        }
      ],
      "name": "isApprovedForAll",
      "outputs": [
        {
          "internalType": "bool",
          "name": "",
          "type": "bool"
        }
      ],
      "stateMutability": "view",
      "type": "function"
    },
    {
      "inputs": [
        {
          "internalType": "string",
          "name": "tokenURI",
          "type": "string"
        },
        {
          "internalType": "uint256",
          "name": "price",
          "type": "uint256"
        }
      ],
      "name": "mint",
      "outputs": [
        {
          "internalType": "uint256",
          "name": "",
          "type": "uint256"
        }
      ],
      "stateMutability": "payable",
      "type": "function"
    },
    {
      "inputs": [],
      "name": "name",
      "outputs": [
        {
          "internalType": "string",
          "name": "",
          "type": "string"
        }
      ],
      "stateMutability": "view",
      "type": "function"
    },
    {
      "inputs": [
        {
          "internalType": "uint256",
          "name": "tokenId",
          "type": "uint256"
        }
      ],
      "name": "ownerOf",
      "outputs": [
        {
          "internalType": "address",
          "name": "",
          "type": "address"
        }
      ],
      "stateMutability": "view",
      "type": "function"
    },
    {
      "inputs": [
        {
          "internalType": "address",
          "name": "from",
          "type": "address"
        },
        {
          "internalType": "address",
          "name": "to",
          "type": "address"
        },
        {
          "internalType": "uint256",
          "name": "tokenId",
          "type": "uint256"
        }
      ],
      "name": "safeTransferFrom",
      "outputs": [],
      "stateMutability": "nonpayable",
      "type": "function"
    },
    {
      "inputs": [
        {
          "internalType": "address",
          "name": "from",
          "type": "address"
        },
        {
          "internalType": "address",
          "name": "to",
          "type": "address"
        },
        {
          "internalType": "uint256",
          "name": "tokenId",
          "type": "uint256"
        },
        {
          "internalType": "bytes",
          "name": "data",
          "type": "bytes"
        }
      ],
      "name": "safeTransferFrom",
      "outputs": [],
      "stateMutability": "nonpayable",
      "type": "function"
    },
    {
      "inputs": [
        {
          "internalType": "address",
          "name": "operator",
          "type": "address"
        },
        {
          "internalType": "bool",
          "name": "approved",
          "type": "bool"
        }
      ],
      "name": "setApprovalForAll",
      "outputs": [],
      "stateMutability": "nonpayable",
      "type": "function"
    },
    {
      "inputs": [
        {
          "internalType": "bytes4",
          "name": "interfaceId",
          "type": "bytes4"
        }
      ],
      "name": "supportsInterface",
      "outputs": [
        {
          "internalType": "bool",
          "name": "",
          "type": "bool"
        }
      ],
      "stateMutability": "view",
      "type": "function"
    },
    {
      "inputs": [],
      "name": "symbol",
      "outputs": [
        {
          "internalType": "string",
          "name": "",
          "type": "string"
        }
      ],
      "stateMutability": "view",
      "type": "function"
    },
    {
      "inputs": [
        {
          "internalType": "uint256",
          "name": "tokenId",
          "type": "uint256"
        }
      ],
      "name": "tokenURI",
      "outputs": [
        {
          "internalType": "string",
          "name": "",
          "type": "string"
        }
      ],
      "stateMutability": "view",
      "type": "function"
    },
    {
      "inputs": [
        {
          "internalType": "address",
          "name": "from",
          "type": "address"
        },
        {
          "internalType": "address",
          "name": "to",
          "type": "address"
        },
        {
          "internalType": "uint256",
          "name": "tokenId",
          "type": "uint256"
        }
      ],
      "name": "transferFrom",
      "outputs": [],
      "stateMutability": "nonpayable",
      "type": "function"
    }
  ],
  "bytecode": "0x608060405266038d7ea4c68000600a553480156200001c57600080fd5b506040805180820182526006815265141a5b94925560d21b60208083019182528351808501909452600384526213919560ea1b908401528151919291620000669160009162000097565b5080516200007c90600190602084019062000097565b5050600980546001600160a01b03191633179055506200017a565b828054620000a5906200013d565b90600052602060002090601f016020900481019282620000c9576000855562000114565b82601f10620000e457805160ff191683800117855562000114565b8280016001018555821562000114579182015b8281111562000114578251825591602001919060010190620000f7565b506200012292915062000126565b5090565b5b8082111562000122576000815560010162000127565b600181811c908216806200015257607f821691505b602082108114156200017457634e487b7160e01b600052602260045260246000fd5b50919050565b611cea806200018a6000396000f3fe6080604052600436106100fe5760003560e01c80636352211e11610095578063a22cb46511610064578063a22cb46514610292578063b88d4fde146102b2578063c87b56dd146102d2578063e0391b09146102f2578063e985e9c51461031457600080fd5b80636352211e1461022857806368f1945f1461024857806370a082311461025d57806395d89b411461027d57600080fd5b8063095ea7b3116100d1578063095ea7b3146101b357806323b872dd146101d557806342842e0e146101f557806351ed82881461021557600080fd5b806301ffc9a714610103578063056b01ce1461013857806306fdde0314610159578063081812fc1461017b575b600080fd5b34801561010f57600080fd5b5061012361011e366004611910565b61035d565b60405190151581526020015b60405180910390f35b61014b610146366004611948565b6103af565b60405190815260200161012f565b34801561016557600080fd5b5061016e6103f1565b60405161012f9190611aca565b34801561018757600080fd5b5061019b61019636600461199e565b610483565b6040516001600160a01b03909116815260200161012f565b3480156101bf57600080fd5b506101d36101ce3660046118e7565b6104aa565b005b3480156101e157600080fd5b506101d36101f03660046117f9565b6105c5565b34801561020157600080fd5b506101d36102103660046117f9565b6105f6565b6101d361022336600461199e565b610611565b34801561023457600080fd5b5061019b61024336600461199e565b610775565b34801561025457600080fd5b50600a5461014b565b34801561026957600080fd5b5061014b6102783660046117ad565b6107d5565b34801561028957600080fd5b5061016e61085b565b34801561029e57600080fd5b506101d36102ad3660046118ad565b61086a565b3480156102be57600080fd5b506101d36102cd366004611834565b610879565b3480156102de57600080fd5b5061016e6102ed36600461199e565b6108ab565b3480156102fe57600080fd5b506103076109bc565b60405161012f9190611a4e565b34801561032057600080fd5b5061012361032f3660046117c7565b6001600160a01b03918216600090815260056020908152604080832093909416825291909152205460ff1690565b60006001600160e01b031982166380ac58cd60e01b148061038e57506001600160e01b03198216635b5e139f60e01b145b806103a957506301ffc9a760e01b6001600160e01b03198316145b92915050565b60006103bf600880546001019055565b60006103ca60085490565b90506103d63382610b23565b6103e08185610b3d565b6103ea8184610bd7565b9392505050565b60606000805461040090611c1c565b80601f016020809104026020016040519081016040528092919081815260200182805461042c90611c1c565b80156104795780601f1061044e57610100808354040283529160200191610479565b820191906000526020600020905b81548152906001019060200180831161045c57829003601f168201915b5050505050905090565b600061048e82610d6a565b506000908152600460205260409020546001600160a01b031690565b60006104b582610775565b9050806001600160a01b0316836001600160a01b031614156105285760405162461bcd60e51b815260206004820152602160248201527f4552433732313a20617070726f76616c20746f2063757272656e74206f776e656044820152603960f91b60648201526084015b60405180910390fd5b336001600160a01b03821614806105445750610544813361032f565b6105b65760405162461bcd60e51b815260206004820152603d60248201527f4552433732313a20617070726f76652063616c6c6572206973206e6f7420746f60448201527f6b656e206f776e6572206f7220617070726f76656420666f7220616c6c000000606482015260840161051f565b6105c08383610dcc565b505050565b6105cf3382610e3a565b6105eb5760405162461bcd60e51b815260040161051f90611add565b6105c0838383610eb8565b6105c083838360405180602001604052806000815250610879565b6000818152600b6020526040902060038101546002909101546001600160a01b03163482146106aa576040805162461bcd60e51b81526020600482015260248101919091527f506c65617365207375626d6974207468652061736b696e67207072696365206960448201527f6e206f7264657220746f20636f6d706c65746520746865207075726368617365606482015260840161051f565b6000838152600b6020526040902060048101805460ff1916600117905560020180546001600160a01b031916331790556106e8600780546001019055565b6106f3303385610eb8565b6106fd30846104aa565b600954600a546040516001600160a01b039092169181156108fc0291906000818181858888f19350505050158015610739573d6000803e3d6000fd5b506040516001600160a01b038216903480156108fc02916000818181858888f1935050505015801561076f573d6000803e3d6000fd5b50505050565b6000818152600260205260408120546001600160a01b0316806103a95760405162461bcd60e51b8152602060048201526018602482015277115490cdcc8c4e881a5b9d985b1a59081d1bdad95b88125160421b604482015260640161051f565b60006001600160a01b03821661083f5760405162461bcd60e51b815260206004820152602960248201527f4552433732313a2061646472657373207a65726f206973206e6f7420612076616044820152683634b21037bbb732b960b91b606482015260840161051f565b506001600160a01b031660009081526003602052604090205490565b60606001805461040090611c1c565b610875338383611029565b5050565b6108833383610e3a565b61089f5760405162461bcd60e51b815260040161051f90611add565b61076f848484846110f8565b60606108b682610d6a565b600082815260066020526040812080546108cf90611c1c565b80601f01602080910402602001604051908101604052809291908181526020018280546108fb90611c1c565b80156109485780601f1061091d57610100808354040283529160200191610948565b820191906000526020600020905b81548152906001019060200180831161092b57829003601f168201915b50505050509050600061096660408051602081019091526000815290565b9050805160001415610979575092915050565b8151156109ab5780826040516020016109939291906119e2565b60405160208183030381529060405292505050919050565b6109b48461112b565b949350505050565b606060006109c960085490565b905060008167ffffffffffffffff8111156109f457634e487b7160e01b600052604160045260246000fd5b604051908082528060200260200182016040528015610a4d57816020015b6040805160a081018252600080825260208083018290529282018190526060820181905260808201528252600019909201910181610a125790505b5090506000805b83811015610b1a576000610a69826001611bc1565b6000818152600b6020908152604091829020825160a0810184528154815260018201546001600160a01b039081169382019390935260028201549092169282019290925260038201546060820152600482015460ff161515608082015286519293509091869086908110610aed57634e487b7160e01b600052603260045260246000fd5b6020908102919091010152610b03600185611bc1565b935050508080610b1290611c57565b915050610a54565b50909392505050565b61087582826040518060200160405280600081525061119e565b6000828152600260205260409020546001600160a01b0316610bb85760405162461bcd60e51b815260206004820152602e60248201527f45524337323155524953746f726167653a2055524920736574206f66206e6f6e60448201526d32bc34b9ba32b73a103a37b5b2b760911b606482015260840161051f565b600082815260066020908152604090912082516105c092840190611682565b600a543414610c1d5760405162461bcd60e51b8152602060048201526012602482015271496e73756666696369656e742066756e647360701b604482015260640161051f565b60008111610c805760405162461bcd60e51b815260206004820152602a60248201527f546861742073686f756c642062652067726561746572207468616e207a65726f604482015269081b5e48199c9a595b9960b21b606482015260840161051f565b6040805160a081018252838152306020808301828152338486018181526060860188815260016080880181815260008c8152600b9097529890952096518755925193860180546001600160a01b039586166001600160a01b03199182161790915590516002870180549190951691161790925551600384015592516004909201805492151560ff1990931692909217909155610d1d919084610eb8565b604080513081523360208201529081018290526001606082015282907fb60d6af69262395d36bb74b07486da09c1637bef4d2e26be4702a871091e28399060800160405180910390a25050565b6000818152600260205260409020546001600160a01b0316610dc95760405162461bcd60e51b8152602060048201526018602482015277115490cdcc8c4e881a5b9d985b1a59081d1bdad95b88125160421b604482015260640161051f565b50565b600081815260046020526040902080546001600160a01b0319166001600160a01b0384169081179091558190610e0182610775565b6001600160a01b03167f8c5be1e5ebec7d5bd14f71427d1e84f3dd0314c0f7b2291e5b200ac8c7c3b92560405160405180910390a45050565b600080610e4683610775565b9050806001600160a01b0316846001600160a01b03161480610e8d57506001600160a01b0380821660009081526005602090815260408083209388168352929052205460ff165b806109b45750836001600160a01b0316610ea684610483565b6001600160a01b031614949350505050565b826001600160a01b0316610ecb82610775565b6001600160a01b031614610ef15760405162461bcd60e51b815260040161051f90611b7c565b6001600160a01b038216610f535760405162461bcd60e51b8152602060048201526024808201527f4552433732313a207472616e7366657220746f20746865207a65726f206164646044820152637265737360e01b606482015260840161051f565b610f6083838360016111d1565b826001600160a01b0316610f7382610775565b6001600160a01b031614610f995760405162461bcd60e51b815260040161051f90611b7c565b600081815260046020908152604080832080546001600160a01b03199081169091556001600160a01b0387811680865260038552838620805460001901905590871680865283862080546001019055868652600290945282852080549092168417909155905184937fddf252ad1be2c89b69c2b068fc378daa952ba7f163c4a11628f55a4df523b3ef91a4505050565b816001600160a01b0316836001600160a01b0316141561108b5760405162461bcd60e51b815260206004820152601960248201527f4552433732313a20617070726f766520746f2063616c6c657200000000000000604482015260640161051f565b6001600160a01b03838116600081815260056020908152604080832094871680845294825291829020805460ff191686151590811790915591519182527f17307eab39ab6107e8899845ad3d59bd9653f200f220920489ca2b5937696c31910160405180910390a3505050565b611103848484610eb8565b61110f84848484611259565b61076f5760405162461bcd60e51b815260040161051f90611b2a565b606061113682610d6a565b600061114d60408051602081019091526000815290565b9050600081511161116d57604051806020016040528060008152506103ea565b8061117784611366565b6040516020016111889291906119e2565b6040516020818303038152906040529392505050565b6111a88383611411565b6111b56000848484611259565b6105c05760405162461bcd60e51b815260040161051f90611b2a565b600181111561076f576001600160a01b03841615611217576001600160a01b03841660009081526003602052604081208054839290611211908490611bd9565b90915550505b6001600160a01b0383161561076f576001600160a01b0383166000908152600360205260408120805483929061124e908490611bc1565b909155505050505050565b60006001600160a01b0384163b1561135b57604051630a85bd0160e11b81526001600160a01b0385169063150b7a029061129d903390899088908890600401611a11565b602060405180830381600087803b1580156112b757600080fd5b505af19250505080156112e7575060408051601f3d908101601f191682019092526112e49181019061192c565b60015b611341573d808015611315576040519150601f19603f3d011682016040523d82523d6000602084013e61131a565b606091505b5080516113395760405162461bcd60e51b815260040161051f90611b2a565b805181602001fd5b6001600160e01b031916630a85bd0160e11b1490506109b4565b506001949350505050565b60606000611373836115aa565b600101905060008167ffffffffffffffff8111156113a157634e487b7160e01b600052604160045260246000fd5b6040519080825280601f01601f1916602001820160405280156113cb576020820181803683370190505b5090508181016020015b600019016f181899199a1a9b1b9c1cb0b131b232b360811b600a86061a8153600a850494508461140457611409565b6113d5565b509392505050565b6001600160a01b0382166114675760405162461bcd60e51b815260206004820181905260248201527f4552433732313a206d696e7420746f20746865207a65726f2061646472657373604482015260640161051f565b6000818152600260205260409020546001600160a01b0316156114cc5760405162461bcd60e51b815260206004820152601c60248201527f4552433732313a20746f6b656e20616c7265616479206d696e74656400000000604482015260640161051f565b6114da6000838360016111d1565b6000818152600260205260409020546001600160a01b03161561153f5760405162461bcd60e51b815260206004820152601c60248201527f4552433732313a20746f6b656e20616c7265616479206d696e74656400000000604482015260640161051f565b6001600160a01b038216600081815260036020908152604080832080546001019055848352600290915280822080546001600160a01b0319168417905551839291907fddf252ad1be2c89b69c2b068fc378daa952ba7f163c4a11628f55a4df523b3ef908290a45050565b60008072184f03e93ff9f4daa797ed6e38ed64bf6a1f0160401b83106115e95772184f03e93ff9f4daa797ed6e38ed64bf6a1f0160401b830492506040015b6d04ee2d6d415b85acef81000000008310611615576d04ee2d6d415b85acef8100000000830492506020015b662386f26fc10000831061163357662386f26fc10000830492506010015b6305f5e100831061164b576305f5e100830492506008015b612710831061165f57612710830492506004015b60648310611671576064830492506002015b600a83106103a95760010192915050565b82805461168e90611c1c565b90600052602060002090601f0160209004810192826116b057600085556116f6565b82601f106116c957805160ff19168380011785556116f6565b828001600101855582156116f6579182015b828111156116f65782518255916020019190600101906116db565b50611702929150611706565b5090565b5b808211156117025760008155600101611707565b600067ffffffffffffffff8084111561173657611736611c88565b604051601f8501601f19908116603f0116810190828211818310171561175e5761175e611c88565b8160405280935085815286868601111561177757600080fd5b858560208301376000602087830101525050509392505050565b80356001600160a01b03811681146117a857600080fd5b919050565b6000602082840312156117be578081fd5b6103ea82611791565b600080604083850312156117d9578081fd5b6117e283611791565b91506117f060208401611791565b90509250929050565b60008060006060848603121561180d578081fd5b61181684611791565b925061182460208501611791565b9150604084013590509250925092565b60008060008060808587031215611849578081fd5b61185285611791565b935061186060208601611791565b925060408501359150606085013567ffffffffffffffff811115611882578182fd5b8501601f81018713611892578182fd5b6118a18782356020840161171b565b91505092959194509250565b600080604083850312156118bf578182fd5b6118c883611791565b9150602083013580151581146118dc578182fd5b809150509250929050565b600080604083850312156118f9578182fd5b61190283611791565b946020939093013593505050565b600060208284031215611921578081fd5b81356103ea81611c9e565b60006020828403121561193d578081fd5b81516103ea81611c9e565b6000806040838503121561195a578182fd5b823567ffffffffffffffff811115611970578283fd5b8301601f81018513611980578283fd5b61198f8582356020840161171b565b95602094909401359450505050565b6000602082840312156119af578081fd5b5035919050565b600081518084526119ce816020860160208601611bf0565b601f01601f19169290920160200192915050565b600083516119f4818460208801611bf0565b835190830190611a08818360208801611bf0565b01949350505050565b6001600160a01b0385811682528416602082015260408101839052608060608201819052600090611a44908301846119b6565b9695505050505050565b602080825282518282018190526000919060409081850190868401855b82811015611abd57815180518552868101516001600160a01b03908116888701528682015116868601526060808201519086015260809081015115159085015260a09093019290850190600101611a6b565b5091979650505050505050565b6020815260006103ea60208301846119b6565b6020808252602d908201527f4552433732313a2063616c6c6572206973206e6f7420746f6b656e206f776e6560408201526c1c881bdc88185c1c1c9bdd9959609a1b606082015260800190565b60208082526032908201527f4552433732313a207472616e7366657220746f206e6f6e20455243373231526560408201527131b2b4bb32b91034b6b83632b6b2b73a32b960711b606082015260800190565b60208082526025908201527f4552433732313a207472616e736665722066726f6d20696e636f72726563742060408201526437bbb732b960d91b606082015260800190565b60008219821115611bd457611bd4611c72565b500190565b600082821015611beb57611beb611c72565b500390565b60005b83811015611c0b578181015183820152602001611bf3565b8381111561076f5750506000910152565b600181811c90821680611c3057607f821691505b60208210811415611c5157634e487b7160e01b600052602260045260246000fd5b50919050565b6000600019821415611c6b57611c6b611c72565b5060010190565b634e487b7160e01b600052601160045260246000fd5b634e487b7160e01b600052604160045260246000fd5b6001600160e01b031981168114610dc957600080fdfea26469706673582212203552f53ba105e44cb6965e01976db4409dc33609e0f0acfc36a2ac51f2aa37d264736f6c63430008040033",
  "linkReferences": {},
  "deployedLinkReferences": {}
}