{
  "_format": "hh-sol-artifact-1",
  "contractName": "MVP",
  "sourceName": "contracts/MVP.sol",
  "abi": [
    {
      "inputs": [],
      "name": "greeting",
      "outputs": [
        {
          "internalType": "string",
          "name": "",
          "type": "string"
        }
      ],
      "stateMutability": "pure",
      "type": "function"
    }
  ],
  "bytecode": "0x608060405234801561001057600080fd5b50610148806100206000396000f3fe608060405234801561001057600080fd5b506004361061002b5760003560e01c8063ef690cc014610030575b600080fd5b61003861004e565b604051610045919061006e565b60405180910390f35b60606040518060800160405280605181526020016100c260519139905090565b6000602080835283518082850152825b8181101561009a5785810183015185820160400152820161007e565b818111156100ab5783604083870101525b50601f01601f191692909201604001939250505056fe436f6e67726174756c6174696f6e732120596f7520686176652073756363657366756c6c79206d616465206120636f6e6e656374696f6e207769746820457468657265756d20626c6f636b636861696e2ea2646970667358221220c01e299ca1e7dd689c123bbfd89f8195272af203eb78c049fbe174cca0f97c9d64736f6c63430008040033",
  "linkReferences": {},
  "deployedLinkReferences": {}
}