{
  "_format": "hh-sol-artifact-1",
  "contractName": "MVP",
  "sourceName": "contracts/MVP.sol",
  "abi": [
    {
      "inputs": [],
      "name": "greeting",
      "outputs": [
        {
          "internalType": "string",
          "name": "",
          "type": "string"
        }
      ],
      "stateMutability": "pure",
      "type": "function"
    }
  ],
  "bytecode": "0x608060405234801561001057600080fd5b506101b0806100206000396000f3fe608060405234801561001057600080fd5b506004361061002b5760003560e01c8063ef690cc014610030575b600080fd5b61003861004e565b6040516100459190610107565b60405180910390f35b606060405180608001604052806051815260200161012a60519139905090565b600081519050919050565b600082825260208201905092915050565b60005b838110156100a857808201518184015260208101905061008d565b838111156100b7576000848401525b50505050565b6000601f19601f8301169050919050565b60006100d98261006e565b6100e38185610079565b93506100f381856020860161008a565b6100fc816100bd565b840191505092915050565b6000602082019050818103600083015261012181846100ce565b90509291505056fe436f6e67726174756c6174696f6e732120596f7520686176652073756363657366756c6c79206d616465206120636f6e6e656374696f6e207769746820457468657265756d20626c6f636b636861696e2ea2646970667358221220e57719d4cf0ced847207f36645d8d51400326df2e6d892b91ee0fb5490db112664736f6c63430008090033",
  "linkReferences": {},
  "deployedLinkReferences": {}
}